1011118830000215083592849     MATTAR LOGISTICA E SERVICOS LTDA-MEPINHEIROS                     ES27997490832021080120210831331
11CORREGO QUINZE LOTE 02, SN        00000ZONA RURAL            ZONA RURAL     29980000CONTADOR                    027997490830
7000047082437749ISENTO        20210802ES082  00130953570000000048026000000000000000000000000000000000000000000000000000480261N
7021259081000119ISENTO        20210802ES082  00131053570000000014848000000000000000000000000000000000000000000000000000148481N
7012923532000180082755850     20210804ES082  00131153530000000078028000000000000000000000000000000000000000000000000000780281N
7012923532000180082755850     20210804ES082  00131253530000000029556000000000000000000000000000000000000000000000000000295561N
7000000000000000              20210804ES082  00131353570000000000000000000000000000000000000000000000000000000000000000000000S
7027183425000130ISENTO        20210804ES082  00131453570000000033516000000000000000000000000000000000000000000000000000335161N
7012923532000180082755850     20210804ES082  00131553530000000103914000000000000000000000000000000000000000000000000001039141N
7027183425000130ISENTO        20210804ES082  00131653570000000034559000000000000000000000000000000000000000000000000000345591N
7027183425000130ISENTO        20210805ES082  00131753570000000033467000000000000000000000000000000000000000000000000000334671N
7029067113024290083119027     20210805ES082  00131853520000000064050000000000000000000000000000000000000000000000000000640501N
7029067113024290083119027     20210805ES082  00131953520000000027300000000000000000000000000000000000000000000000000000273001N
7029067113024290083119027     20210806ES082  00132053520000000064281000000000000000000000000000000000000000000000000000642811N
7029067113024290083119027     20210806ES082  00132153520000000021000000000000000000000000000000000000000000000000000000210001N
7027183425000130ISENTO        20210806ES082  00132253570000000033292000000000000000000000000000000000000000000000000000332921N
7027183425000130ISENTO        20210806ES082  00132353570000000029988000000000000000000000000000000000000000000000000000299881N
7000611119000281ISENTO        20210806ES082  00132453520000000021012000000000000000000000000000000000000000000000000000210121N
7000008952496779111775973     20210806ES082  00132553520000000014994000000000000000000000000000000000000000000000000000149941N
7000611119000281ISENTO        20210806ES082  00132653520000000022344000000000000000000000000000000000000000000000000000223441N
7029067113024290083119027     20210809ES082  00132753520000000065352000000000000000000000000000000000000000000000000000653521N
7029067113024290083119027     20210809ES082  00132853520000000021000000000000000000000000000000000000000000000000000000210001N
7029067113024290083119027     20210810ES082  00132953520000000064239000000000000000000000000000000000000000000000000000642391N
7029067113024290083119027     20210810ES082  00133053520000000021000000000000000000000000000000000000000000000000000000210001N
7000611119000281ISENTO        20210810ES082  00133153520000000015972000000000000000000000000000000000000000000000000000159721N
7000003579547771ISENTO        20210810ES082  00133253570000000047383000000000000000000000000000000000000000000000000000473831N
7007375591000120ISENTO        20210810ES082  00133353530000000016558000000000000000000000000000000000000000000000000000165581N
7038043189000172083678166     20210811ES082  00133453530000000078350000000000000000000000000000000000000000000000000000783501N
7038043189000172083678166     20210811ES082  00133553530000000027500000000000000000000000000000000000000000000000000000275001N
7010340747000142ISENTO        20210811ES082  00133653530000000043965000000000000000000000000000000000000000000000000000439651N
7027183425000130ISENTO        20210812ES082  00133753570000000072811000000000000000000000000000000000000000000000000000728111N
7027183425000130ISENTO        20210812ES082  00133853570000000073491000000000000000000000000000000000000000000000000000734911N
7038043189000172083678166     20210812ES082  00133953530000000078575000000000000000000000000000000000000000000000000000785751N
7038043189000172083678166     20210812ES082  00134053530000000025000000000000000000000000000000000000000000000000000000250001N
7029067113024290083119027     20210812ES082  00134153520000000064743000000000000000000000000000000000000000000000000000647431N
7029067113024290083119027     20210812ES082  00134253520000000023100000000000000000000000000000000000000000000000000000231001N
7038043189000172083678166     20210813ES082  00134353530000000079500000000000000000000000000000000000000000000000000000795001N
7000000000000000              20210813ES082  00134453530000000000000000000000000000000000000000000000000000000000000000000000S
7029067113024290083119027     20210813ES082  00134553520000000066402000000000000000000000000000000000000000000000000000664021N
7029067113024290083119027     20210813ES082  00134653520000000025200000000000000000000000000000000000000000000000000000252001N
7000033455287700ISENTO        20210813ES082  00134753570000000035280000000000000000000000000000000000000000000000000000352801N
7011328637000128082683212     20210813ES082  00134853530000000064414000000000000000000000000000000000000000000000000000644141N
7011328637000128082683212     20210813ES082  00134953530000000020900000000000000000000000000000000000000000000000000000209001N
7038043189000172083678166     20210814ES082  00135053530000000025000000000000000000000000000000000000000000000000000000250001N
7000000000000000              20210816ES081  00000553520000000000000000000000000000000000000000000000000000000000000000000000S
7009488036000130ISENTO        20210816ES082  00135153520000000027500000000000000000000000000000000000000000000000000000275001N
7000000000000000              20210816ES082  00135253520000000000000000000000000000000000000000000000000000000000000000000000S
7009488036000130ISENTO        20210816ES082  00135353520000000079500000000000000000000000000000000000000000000000000000795001N
7000000000000000              20210817ES082  00135453520000000000000000000000000000000000000000000000000000000000000000000000S
7000000000000000              20210817ES082  00135553520000000000000000000000000000000000000000000000000000000000000000000000S
7000000000000000              20210817ES082  00135653520000000000000000000000000000000000000000000000000000000000000000000000S
7014792934000118082900337     20210817ES082  00135753520000000046226000000000000000000000000000000000000000000000000000462261N
7029067113024290083119027     20210817ES082  00135853520000000066381000000000000000000000000000000000000000000000000000663811N
7029067113024290083119027     20210817ES082  00135953520000000037800000000000000000000000000000000000000000000000000000378001N
7013271079000137082926646     20210817ES082  00136053530000000042500000000000000000000000000000000000000000000000000000425001N
7029067113024290083119027     20210818ES082  00136153520000000065436000000000000000000000000000000000000000000000000000654361N
7029067113024290083119027     20210818ES082  00136253520000000018900000000000000000000000000000000000000000000000000000189001N
7000014905491703ISENTO        20210818ES082  00136353570000000036002000000000000000000000000000000000000000000000000000360021N
7038043189000172083678166     20210818ES082  00136453530000000066234000000000000000000000000000000000000000000000000000662341N
7038043189000172083678166     20210818ES082  00136553530000000021000000000000000000000000000000000000000000000000000000210001N
7014792934000118082900337     20210819ES082  00136653520000000059100000000000000000000000000000000000000000000000000000591001N
7014792934000118082900337     20210819ES082  00136753520000000018750000000000000000000000000000000000000000000000000000187501N
7000000000000000              20210823ES082  00136853570000000000000000000000000000000000000000000000000000000000000000000000S
7027183425000130ISENTO        20210823ES082  00136953570000000069853000000000000000000000000000000000000000000000000000698531N
7027183425000130ISENTO        20210823ES082  00137053570000000071128000000000000000000000000000000000000000000000000000711281N
7000000000000000              20210823ES082  00137153520000000000000000000000000000000000000000000000000000000000000000000000S
7000000000000000              20210823ES082  00137253520000000000000000000000000000000000000000000000000000000000000000000000S
7014792934000118082900337     20210823ES082  00137353520000000059925000000000000000000000000000000000000000000000000000599251N
7014792934000118082900337     20210823ES082  00137453520000000018750000000000000000000000000000000000000000000000000000187501N
7029067113024290083119027     20210824ES082  00137553520000000066003000000000000000000000000000000000000000000000000000660031N
7029067113024290083119027     20210824ES082  00137653520000000021000000000000000000000000000000000000000000000000000000210001N
7000000000000000              20210824ES082  00137753520000000000000000000000000000000000000000000000000000000000000000000000S
7000000000000000              20210824ES082  00137853520000000000000000000000000000000000000000000000000000000000000000000000S
7014792934000118082900337     20210824ES082  00137953520000000071438000000000000000000000000000000000000000000000000000714381N
7007375591000120ISENTO        20210824ES082  00138053530000000014994000000000000000000000000000000000000000000000000000149941N
7029067113024290083119027     20210825ES082  00138153520000000067179000000000000000000000000000000000000000000000000000671791N
7029067113024290083119027     20210825ES082  00138253520000000023100000000000000000000000000000000000000000000000000000231001N
7029067113024290083119027     20210826ES082  00138353520000000066213000000000000000000000000000000000000000000000000000662131N
7029067113024290083119027     20210826ES082  00138453520000000021000000000000000000000000000000000000000000000000000000210001N
7029067113024290083119027     20210826ES082  00138553520000000065394000000000000000000000000000000000000000000000000000653941N
7029067113024290083119027     20210826ES082  00138653520000000021000000000000000000000000000000000000000000000000000000210001N
7000047082437749ISENTO        20210830ES082  00138753570000000050430000000000000000000000000000000000000000000000000000504301N
7029067113024290083119027     20210831ES082  00138853520000000066990000000000000000000000000000000000000000000000000000669901N
7029067113024290083119027     20210831ES082  00138953520000000023100000000000000000000000000000000000000000000000000000231001N
7029067113024290083119027     20210831ES082  00139053520000000064365000000000000000000000000000000000000000000000000000643651N
7029067113024290083119027     20210831ES082  00139153520000000016800000000000000000000000000000000000000000000000000000168001N
7100047082437749ISENTO        20210802ES082  001309ES34002904000178083574743     20210802551  00571000000000090051            
7121259081000119ISENTO        20210802ES082  001310ES34002904000178083574743     20210802551  00571300000000026596            
7112923532000180082755850     20210804ES082  001311ES34002904000178083574743     20210804551  00571800000000091682            
7112923532000180082755850     20210804ES082  001312ES34002904000178083574743     20210804551  00571900000000034728            
7127183425000130ISENTO        20210804ES082  001314ES34002904000178083574743     20210804551  00572300000000136458            
7112923532000180082755850     20210804ES082  001315ES34002904000178083574743     20210804551  00572400000000182261            
7127183425000130ISENTO        20210804ES082  001316ES34002904000178083574743     20210804551  00572500000000140704            
7127183425000130ISENTO        20210805ES082  001317ES34002904000178083574743     20210805551  00572900000000136259            
7129067113024290083119027     20210805ES082  001318ES34002904000178083574743     20210805551  00573200000000084381            
7129067113024290083119027     20210805ES082  001319ES34002904000178083574743     20210805551  00573300000000035966            
7129067113024290083119027     20210806ES082  001320ES34002904000178083574743     20210806551  00573600000000084686            
7129067113024290083119027     20210806ES082  001321ES34002904000178083574743     20210806551  00573700000000027666            
7127183425000130ISENTO        20210806ES082  001322ES34002904000178083574743     20210806551  00573900000000135546            
7127183425000130ISENTO        20210806ES082  001323ES34002904000178083574743     20210806551  00574000000000122094            
7100611119000281ISENTO        20210806ES082  001324ES34002904000178083574743     20210806551  00574300000000040851            
7100008952496779111775973     20210806ES082  001325ES34002904000178083574743     20210806551  00574400000000045000            
7100611119000281ISENTO        20210806ES082  001326ES34002904000178083574743     20210806551  00574500000000043440            
7129067113024290083119027     20210809ES082  001327ES34002904000178083574743     20210809551  00575200000000086097            
7129067113024290083119027     20210809ES082  001328ES34002904000178083574743     20210809551  00575400000000027666            
7129067113024290083119027     20210810ES082  001329ES34002904000178083574743     20210810551  00575600000000084630            
7129067113024290083119027     20210810ES082  001330ES34002904000178083574743     20210810551  00575700000000027666            
7100611119000281ISENTO        20210810ES082  001331ES34002904000178083574743     20210810551  00575800000000018428            
7100003579547771ISENTO        20210810ES082  001332ES34002904000178083574743     20210810551  00575900000000124918            
7107375591000120ISENTO        20210810ES082  001333ES34002904000178083574743     20210810551  00576400000000028003            
7138043189000172083678166     20210811ES082  001334ES34002904000178083574743     20210811551  00576600000000137113            
7138043189000172083678166     20210811ES082  001335ES34002904000178083574743     20210811551  00576700000000048125            
7110340747000142ISENTO        20210811ES082  001336ES34002904000178083574743     20210811551  00577000000000093088            
7127183425000130ISENTO        20210812ES082  001337ES34002904000178083574743     20210812551  00577400000000209867            
7127183425000130ISENTO        20210812ES082  001338ES34002904000178083574743     20210812551  00577500000000157357            
7138043189000172083678166     20210812ES082  001339ES34002904000178083574743     20210812551  00577900000000137506            
7138043189000172083678166     20210812ES082  001340ES34002904000178083574743     20210812551  00578000000000043750            
7129067113024290083119027     20210812ES082  001341ES34002904000178083574743     20210812551  00578100000000085294            
7129067113024290083119027     20210812ES082  001342ES34002904000178083574743     20210812551  00578200000000030433            
7138043189000172083678166     20210813ES082  001343ES34002904000178083574743     20210813551  00578800000000074189            
7129067113024290083119027     20210813ES082  001345ES34002904000178083574743     20210813551  00579000000000098022            
7129067113024290083119027     20210813ES082  001346ES34002904000178083574743     20210813551  00579100000000037200            
7100033455287700ISENTO        20210813ES082  001347ES34002904000178083574743     20210813551  00579300000000126722            
7111328637000128082683212     20210813ES082  001348ES34002904000178083574743     20210813551  00579400000000150186            
7111328637000128082683212     20210813ES082  001349ES34002904000178083574743     20210813551  00579500000000048730            
7138043189000172083678166     20210814ES082  001350ES34002904000178083574743     20210814551  00578900000000023330            
7109488036000130ISENTO        20210816ES082  001351ES34002904000178083574743     20210816551  00580400000000038500            
7109488036000130ISENTO        20210816ES082  001353ES34002904000178083574743     20210816551  00580300000000111300            
7114792934000118082900337     20210817ES082  001357ES34002904000178083574743     20210817551  00581100000000057641            
7129067113024290083119027     20210817ES082  001358ES34002904000178083574743     20210817551  00580700000000087452            
7129067113024290083119027     20210817ES082  001359ES34002904000178083574743     20210817551  00580800000000049799            
7113271079000137082926646     20210817ES082  001360ES34002904000178083574743     20210817551  00581800000000089250            
7129067113024290083119027     20210818ES082  001361ES34002904000178083574743     20210818551  00582100000000086207            
7129067113024290083119027     20210818ES082  001362ES34002904000178083574743     20210818551  00582200000000024899            
7100014905491703ISENTO        20210818ES082  001363ES34002904000178083574743     20210818551  00582400000000089998            
7138043189000172083678166     20210818ES082  001364ES34002904000178083574743     20210818551  00582500000000137988            
7138043189000172083678166     20210818ES082  001365ES34002904000178083574743     20210818551  00582600000000043750            
7114792934000118082900337     20210819ES082  001366ES34002904000178083574743     20210819551  00583300000000224580            
7114792934000118082900337     20210819ES082  001367ES34002904000178083574743     20210819551  00583400000000071250            
7127183425000130ISENTO        20210823ES082  001369ES34002904000178083574743     20210823551  00585100000000201341            
7127183425000130ISENTO        20210823ES082  001370ES34002904000178083574743     20210823551  00585300000000152298            
7114792934000118082900337     20210823ES082  001373ES34002904000178083574743     20210823551  00585400000000246507            
7114792934000118082900337     20210823ES082  001374ES34002904000178083574743     20210823551  00585500000000077130            
7129067113024290083119027     20210824ES082  001375ES34002904000178083574743     20210824551  00586000000000086954            
7129067113024290083119027     20210824ES082  001376ES34002904000178083574743     20210824551  00586100000000027666            
7114792934000118082900337     20210824ES082  001379ES34002904000178083574743     20210824551  00586200000000293865            
7107375591000120ISENTO        20210824ES082  001380ES34002904000178083574743     20210824551  00586400000000025358            
7129067113024290083119027     20210825ES082  001381ES34002904000178083574743     20210825551  00586600000000088504            
7129067113024290083119027     20210825ES082  001382ES34002904000178083574743     20210825551  00586700000000030433            
7129067113024290083119027     20210826ES082  001383ES34002904000178083574743     20210826551  00588700000000087231            
7129067113024290083119027     20210826ES082  001384ES34002904000178083574743     20210826551  00588800000000027666            
7129067113024290083119027     20210826ES082  001385ES34002904000178083574743     20210826551  00588900000000086152            
7129067113024290083119027     20210826ES082  001386ES34002904000178083574743     20210826551  00589000000000027666            
7100047082437749ISENTO        20210830ES082  001387ES34002904000178083574743     20210830551  00589800000000090051            
7129067113024290083119027     20210831ES082  001388ES34002904000178083574743     20210831551  00591600000000088255            
7129067113024290083119027     20210831ES082  001389ES34002904000178083574743     20210831551  00591800000000030433            
7129067113024290083119027     20210831ES082  001390ES34002904000178083574743     20210831551  00592500000000084796            
7129067113024290083119027     20210831ES082  001391ES34002904000178083574743     20210831551  00592600000000022133            
9011118830000215083592849     700000008471000000729900000159                                                                 1
